:020000040800F2
:10000000A004002001010008691800083F1400083E
:100010006518000849040008611B00080000000082
:100020000000000000000000000000009918000817
:100030004D040008000000006D1800089B1800081F
:100040001B0100081B0100081B0100081B01000820
:100050001B0100081B0100081B0100081B01000810
:100060001B0100081B0100081B0100081B01000800
:100070001B0100081B0100081B0100081B010008F0
:100080001B0100081B0100081B0100081B010008E0
:100090001B0100081B0100081B0100081B010008D0
:1000A0001B0100081B0100081B0100081B010008C0
:1000B0001B0100081B0100081B0100081B010008B0
:1000C0001B0100081B0100081B0100081B010008A0
:1000D0001B0100081B0100081B0100081B01000890
:1000E0001B0100081B0100081B010008DFF80CD0F1
:1000F00000F02AF800480047251D0008A004002051
:100100000648804706480047FEE7FEE7FEE7FEE7B1
:10011000FEE7FEE7FEE7FEE7FEE7FEE70919000857
:10012000ED000008D2B201E000F8012B491EFBD21D
:1001300070470022F6E710B513460A4604461946F2
:10014000FFF7F0FF204610BD064C074D06E0E068C3
:1001500040F0010394E8070098471034AC42F6D30E
:10016000FFF7C8FFA81D0008C81D000810B501F062
:1001700069F910BD70B505460C46164601F096FAB1
:10018000A02001F057FA01F0D1FA012805D119A0F9
:1001900001F0E8FC01F0AAFA02E022A001F0E2FC82
:1001A000E8B201F047FA01F0C1FA012805D128A010
:1001B00001F0D8FC01F09AFA02E030A001F0D2FC84
:1001C00010E014F8010B01F035FA01F0AFFA012844
:1001D00005D135A001F0C6FC01F088FA02E03BA091
:1001E00001F0C0FC301EA6F10101CEB2E9D101F050
:1001F0007DFA70BD5B415432344330325D20416E34
:1002000073776572656420746865206465766963D8
:100210006520616464726573733A204572726F720F
:100220000A0000005B415432344330325D20416E9D
:1002300073776572656420746865206465766963A8
:100240006520616464726573733A204F4B0A000045
:100250005B415432344330325D20416E73776572B6
:1002600065642074686520706167652061646472EC
:100270006573733A204572726F720A005B415432A3
:10028000344330325D20416E73776572656420744B
:100290006865207061676520616464726573733A94
:1002A000204F4B0A000000005B415432344330328F
:1002B0005D20416E737765726564207468652064A3
:1002C0006174613A204572726F720A005B41543268
:1002D000344330325D20416E7377657265642074FB
:1002E000686520646174613A204F4B0A0000000089
:1002F00070B506460C46154601F0D8F9A02001F06D
:1003000099F901F013FA012805D122A001F02AFC85
:1003100001F0ECF902E02BA001F024FC304601F0E2
:1003200089F901F003FA012805D131A001F01AFC86
:1003300001F0DCF902E039A001F014FC01F0B6F99B
:10034000A12001F077F901F0F1F9012805D111A000
:1003500001F008FC01F0CAF902E01AA001F002FC69
:10036000681EC5B206E001F0E7F804F8010B0020B2
:1003700001F0B2F8281EA5F10101CDB2F3D101F0D0
:10038000DBF804F8010B012001F0A6F801F0AEF94A
:1003900070BD00005B415432344330325D20416E09
:1003A0007377657265642074686520646576696337
:1003B0006520616464726573733A204572726F726E
:1003C0000A0000005B415432344330325D20416EFC
:1003D0007377657265642074686520646576696307
:1003E0006520616464726573733A204F4B0A0000A4
:1003F0005B415432344330325D20416E7377657215
:1004000065642074686520776F726420616464722B
:100410006573733A204572726F720A005B41543201
:10042000344330325D20416E7377657265642074A9
:10043000686520776F726420616464726573733AD3
:10044000204F4B0A0000000000BFFEE7704772B665
:1004500000BFFEE770B5044600F0AEF9064625463B
:10046000681C10B104480078054400BF00F0A4F9EE
:10047000801BA842FAD370BD080000202DE9F84780
:100480000346002294466EE14FF0010808FA02F498
:10049000D1F8008008EA0400A0427DD1DFF8DCA298
:1004A000D1F80480A8EB0A09D0453AD014DCB8F1A1
:1004B000030F50D009DCB8F1000F31D0B8F1010FB3
:1004C0001CD0B8F1020F49D120E0B8F1110F18D0BB
:1004D000B8F1120F42D11EE0B9F5881F25D006DC15
:1004E000B9F5803F20D0B9F5801F37D11AE0B9F5B2
:1004F000001F18D0B9F5041F30D117E0D1F80CC097
:100500002DE0D1F80C8008F1040C28E0D1F80C8023
:1005100008F1080C23E0D1F80C8008F10C0C1EE067
:1005200000BF00BF00BF00BF00BF00BFD1F8088000
:10053000B8F1000F02D14FF0040C0BE0D1F80880A5
:10054000B8F1010F03D14FF0080C1C6102E04FF02D
:10055000080C5C6103E04FF0000C00E000BF00BF3E
:10056000FF2801D8984601E003F104084646FF2819
:1005700002D84FEA820803E0A2F108084FEA88088F
:100580004746D6F800804FF00F0909FA07F928EA24
:1005900009080CFA07F900E088E048EA0908C6F8FB
:1005A0000080D1F8048008F08058B8F1805F7DD1D8
:1005B00000BFDFF8CC81D8F8188048F00108DFF8D8
:1005C000C091C9F81880C846D8F8188008F001080A
:1005D000CDF8008000BF00BF4FEAB9384FEA92095A
:1005E00058F829504FEA82784FEA18794FF00F08EF
:1005F00008FA09F825EA0805DFF88881434502D1A1
:100600004FF0000816E0DFF88081434502D14FF03B
:1006100001080FE0DFF87481434502D14FF0020872
:1006200008E0DFF86C81434502D14FF0030801E098
:100630004FF004084FEA82794FEA197908FA09F86D
:1006400048EA0505DFF84C814FEA920948F829503D
:10065000D1F8048008F48038B8F5803F0AD1DFF87B
:100660003881D8F8008048EA0008DFF82C91C9F8F2
:10067000008009E0DFF82081D8F8008028EA00082F
:10068000DFF81491C9F80080D1F8048008F400382C
:10069000B8F5003F10D1DFF8008108F10408D8F860
:1006A000008048EA0008DFF8F09000E05AE009F125
:1006B0000409C9F800800DE0DFF8DC8008F10408C7
:1006C000D8F8008028EA0008DFF8CC9009F1040986
:1006D000C9F80080D1F8048008F48018B8F5801FAC
:1006E0000ED1DFF8B48008F10808D8F8008048EA95
:1006F0000008DFF8A49009F10809C9F800800DE0AE
:10070000DFF8948008F10808D8F8008028EA00088B
:10071000DFF8849009F10809C9F80080D1F8048055
:1007200008F40018B8F5001F0ED1DFF86C8008F14E
:100730000C08D8F8008048EA0008DFF85C9009F15E
:100740000C09C9F800800DE0DFF84C8008F10C08B6
:10075000D8F8008028EA0008DFF83C9009F10C097D
:10076000C9F80080521CD1F8008028FA02F8B8F1CC
:10077000000F7FF489AEBDE8F8870000000011107B
:100780000010024000080140000C01400010014030
:100790000014014008000140000401400246936833
:1007A0000B400BB1012000E0002070470AB101614D
:1007B00001E00B04036170470148006870470000C6
:1007C00000000020034800680349097808440149F3
:1007D00008607047000000200800002010B508489D
:1007E000006840F0100006490860032000F098F807
:1007F0000F2000F007F800F02BF8002010BD0000DB
:100800000020024070B504460E4800784FF47A711B
:10081000B1FBF0F00C490968B1FBF0F5284600F097
:10082000FBFB08B1012070BD102C07D2002221462D
:10083000501E00F037F80548046001E00120F2E79F
:100840000020F0E7080000200C0000200400002039
:1008500008B500BF1148806940F001000F49886168
:100860000846806900F00100009000BF00BF00BF93
:100870000846C06940F08050C8610846C06900F071
:100880008050009000BF00BF00BF0549486820F0BD
:10089000E06040F00070486000BF08BD00100240FA
:1008A000000001402DE9F05F80460D461646002706
:1008B00001F068F9074639462A46334601F0070039
:1008C000C0F1070ABAF1040F02D94FF0040A01E09F
:1008D000C0F1070AD14600F1040ABAF1070F02D2AB
:1008E0004FF0000A01E0A0F1030AD4464FF0010ADC
:1008F0000AFA09FAAAF1010A0AEA020A0AFA0CFA41
:100900004FF0010B0BFA0CFBABF1010B0BEA030BE5
:100910004AEA0B042146404601F03CF9BDE8F09F4D
:1009200000BF00F00702064B19684FF6FF0319409D
:10093000044B0B4343EA0221014B196000BF70478F
:100940000CED00E00000FA0570B504460D460CB948
:10095000012070BD5A48006800F00700A8420ED27E
:100960005748006820F007002843554908600846AA
:10097000006800F00700A84201D00120E9E72078D4
:1009800000F0020002281DD1207800F004000428A5
:1009900005D14C48406840F4E0604A4948602078FE
:1009A00000F00800082805D14648406840F460502F
:1009B000444948604348406820F0F000A16808437B
:1009C00040494860207800F0010078B36068012851
:1009D00006D13C48006800F4003090B90120B8E727
:1009E0006068022806D13748006800F0007040B9FE
:1009F0000120AEE73348006800F0020008B901208A
:100A0000A7E73048406820F00300616808432D499B
:100A10004860FFF7D1FE064609E0FFF7CDFE801BD8
:100A200041F28831884202D9032092E707E0254845
:100A3000406800F00C006168B0EB810FEDD12048F8
:100A4000006800F00700A8420ED91D48006820F099
:100A5000070028431A4908600846006800F00700AC
:100A6000A84201D0012074E7207800F00400042897
:100A700007D11448406820F4E060E1680843114958
:100A80004860207800F00800082808D10D48406828
:100A900020F46050216940EAC1000A49486000F032
:100AA0003FF808494968C1F30311074A515CC8403F
:100AB0000649086006480068FFF7A4FE002048E7E2
:100AC0000020024000100240901D00080C00002091
:100AD0000400002001480068704700000C0000205E
:100AE00000B5FFF7F7FF04494968C1F30221034A43
:100AF000515CC84000BD000000100240A01D00086D
:100B000000B5FFF7E7FF04494968C1F3C221034A72
:100B1000515CC84000BD000000100240A01D00084C
:100B2000F0B585B00FF26C0C9CE8E01001A8A0E8CD
:100B3000E0101CA52D680095002100220023002450
:100B40000020194D696801F00C05F5B1042D02D0A3
:100B5000082D19D101E0154819E001ADC1F3834614
:100B6000AC5D01F4803555B10F4D6D68C5F340455E
:100B70001DF805200D4D6543B5FBF2F302E00C4D69
:100B800004FB05F3184602E000BF084800BF00BFA1
:100B900005B0F0BD02030405060708090A0B0C0D99
:100BA0000E0F1010010200000010024000127A0027
:100BB00000093D00F8B504460CB90120F8BD2078C5
:100BC00000F00100002878D0F848406800F00C00E0
:100BD00004280CD0F548406800F00C00082811D11A
:100BE000F248406800F48030B0F5803F0AD1EF4809
:100BF000006800F4003000285FD0606800285CD1F5
:100C00000120DBE700BF6068B0F5803F06D1E74810
:100C1000006840F48030E549086028E0606858B911
:100C2000E248006820F48030E04908600846006827
:100C300020F4802008601AE06068B0F5A02F0BD186
:100C4000DA48006840F48020D84908600846006807
:100C500040F4803008600AE0D448006820F4803016
:100C6000D24908600846006820F48020086000BF70
:100C7000606888B1FFF7A0FD054606E0FFF79CFD20
:100C8000401B642801D9032098E7C848006800F495
:100C900000300028F2D010E0FFF78EFD054606E098
:100CA000FFF78AFD401B642801D9032086E7BF486F
:100CB000006800F400300028F2D1207800F0020033
:100CC000022857D1B948406800F00C0050B1B7482D
:100CD000406800F00C00082818D1B448406800F4BF
:100CE000803098B9B148006800F0020020B1206956
:100CF000012801D0012061E7AC48006820F0F8002D
:100D0000616940EAC100A949086033E02069E8B19F
:100D10000120A7490860FFF74FFD054606E0FFF7F1
:100D20004BFD401B022801D9032047E79F4800687C
:100D300000F002000028F2D09C48006820F0F80083
:100D4000616940EAC1009949086013E000209849B0
:100D50000860FFF731FD054606E0FFF72DFD401B5B
:100D6000022801D9032029E79048006800F002001A
:100D70000028F2D1207800F0080008282DD1A069C1
:100D8000B8B101208B490860FFF716FD054606E063
:100D9000FFF712FD401B022801D903200EE783480C
:100DA000406A00F002000028F2D0012000F060FD4F
:100DB00013E000207F490860FFF7FEFC054606E0CF
:100DC000FFF7FAFC401B022801D90320F6E677481A
:100DD000406A00F002000028F2D1207800F0040000
:100DE000042873D100277148C06900F0805070B9A1
:100DF00000BF6E48C06940F080506C49C861084629
:100E0000C06900F08050009000BF00BF01276A4811
:100E1000006800F48070B0B96748006840F48070E2
:100E200065490860FFF7C8FC054606E0FFF7C4FC0B
:100E3000401B642801D90320C0E65F48006800F425
:100E400080700028F2D000BFE068012806D1574822
:100E5000006A40F001005549086227E0E06858B98F
:100E60005248006A20F00100504908620846006AB2
:100E700020F00400086219E0E06805280BD14B4817
:100E8000006A40F00400494908620846006A40F0E0
:100E9000010008620AE04548006A20F00100434969
:100EA00008620846006A20F00400086200BFE0689B
:100EB000A0B1FFF781FC054609E0FFF77DFC401B70
:100EC00041F28831884202D9032077E622E0374890
:100ED000006A00F002000028EFD012E0FFF76CFC7F
:100EE000054608E0FFF768FC401B41F28831884264
:100EF00001D9032062E62D48006A00F002000028B4
:100F0000F0D1012F05D12948C06920F08050274930
:100F1000C86100BFE069C8B32448406800F00C0015
:100F2000082860D0E069022848D1002020490866DE
:100F3000FFF742FC054606E0FFF73EFC401B022897
:100F400001D903203AE61948006800F00070002833
:100F5000F2D1206AB0F5803F07D11448406820F4F0
:100F60000030A168084311494860D4E908010843EA
:100F70000E49496821F4741108430C494860012066
:100F80000B490866FFF718FC054607E03DE0FFF750
:100F900013FC401B022801D903200FE60348006818
:100FA00000F000700028F2D02FE000000010024096
:100FB0000000424280044242007000400020144978
:100FC0000866FFF7F9FB054606E0FFF7F5FB401B57
:100FD000022801D90320F1E50E48006800F00070F6
:100FE0000028F2D111E0E069012800D1E6E50948C6
:100FF000466806F48031206A814204D106F47011FB
:10100000606A814201D00120D8E50020D6E50000C9
:10101000000042420010024070B504462546681E9A
:10102000B0F1807F01D301200FE0681E4FF0E02176
:1010300048610F214FF0FF3000F0ACFD00204FF071
:10104000E021886107200861002070BD30B50246AC
:101050000B4600BF92F83C00012801D1022030BDB0
:10106000012082F83C0000BF022082F83D00106899
:1010700044681068816824F070041868044310689C
:101080004460104D1068A8420BD01068B0F1804F3A
:1010900007D00D4D1068A84203D00C4D1068A8422F
:1010A00005D121F08001586801431068816001205A
:1010B00082F83D0000BF002082F83C0000BF00BF66
:1010C000CDE70000002C0140000400400008004073
:1010D00010B504460CB9012010BD94F83D0028B9A4
:1010E000002084F83C00204600F026F8022084F816
:1010F0003D00211D206800F009FC012084F8460015
:1011000000BF84F83E0001213F20015540200155D9
:101110004120015500BF00BF012084F84200432058
:101120000155442001554520015500BF012084F898
:101130003D000020D0E7000008B5094A016891424F
:101140000DD100BF0749896941F40061054A9161E9
:101150001146896901F40061009100BF00BF08BD1C
:10116000002C0140001002402DE9F04104460D46DC
:1011700000BF94F83C00012802D10220BDE8F081B4
:10118000012084F83C0000BF022084F83D00206864
:10119000866826F0770626F47F46206886602868F1
:1011A000502833D00CDC202850D004DC00284BD051
:1011B000102851D149E0302849D040284CD139E09D
:1011C00060282DD0702807D0B0F5805F03D0B0F52F
:1011D000005F41D10DE040E0D5E902136A68206864
:1011E00000F0CEFB2068866846F0770620688660AF
:1011F00033E0D5E902136A68206800F0C1FB20687B
:10120000806840F480402168886026E0EA68696868
:10121000206800F0C9FB5021206800F0BCFB1CE0F6
:10122000EA686968206800F0D2FB6021206800F05D
:10123000B2FB12E0EA686968206800F0B5FB402163
:10124000206800F0A8FB08E000BF00BF00BF2968CD
:10125000206800F0A0FB00E000BF00BF012084F880
:101260003D0000BF002084F83C0000BF00BF85E7C0
:1012700010B504460CB9012010BDA06900B100E012
:1012800000BF94F83D0028B9002084F83C002046B7
:1012900000F028F8242084F83D002068C06820F47D
:1012A00000502168C860204600F0A6FB2068006955
:1012B00020F49040216808612068406920F02A00ED
:1012C000216848612068C06840F400502168C86007
:1012D00000202064202084F83D0084F83E00002097
:1012E000CAE7000010B586B00446002002900390C3
:1012F000049005901A49206888422ED100BF1948F1
:10130000806940F48040174988610846806900F48C
:101310008040019000BF00BF00BF0846806940F0D8
:10132000040088610846806900F00400019000BF55
:1013300000BF48150290022003900320059002A9E7
:101340000948FFF79BF84FF480600290002003905B
:10135000049002A90448FFF791F806B010BD000000
:101360000038014000100240000801402DE9F84F0C
:1013700004460E46174699464FF0000A94F83D0081
:1013800020285AD106B117B90120BDE8F88F00BF57
:1013900094F83C00012801D10220F6E7012084F8EE
:1013A0003C0000BF00202064212084F83D00FFF7AE
:1013B00003FA8246A784E784A068B0F5805F04D171
:1013C000206910B90025B04602E035464FF000080C
:1013D00000BF002084F83C0000BF1BE05346002201
:1013E00080212046CDF8009000F084FB08B1032056
:1013F000CBE745B9B8F80000C0F3080021684860A1
:1014000008F1020803E02878216848606D1CE08C30
:10141000401EE084E08C0028E0D1534600224021A9
:101420002046CDF8009000F065FB08B10320ACE742
:10143000202084F83D000020A7E70220A5E700BF98
:10144000FEE7000000B585B00020019002900390F7
:10145000049000BF1E48806940F008001C49886164
:101460000846806900F00800009000BF00BF00BF80
:101470000846806940F0080088610846806900F0ED
:101480000800009000BF00BF402001901120029092
:10149000012003900220049001A90E48FEF7EEFF00
:1014A00080200190112002900120039002200490DE
:1014B00001A90848FEF7E2FF012240210548FFF795
:1014C00075F9012280210348FFF770F905B000BDCE
:1014D00000100240000C014010B5044600F082F8F4
:1014E000002240211348FFF761F9002280211148B2
:1014F000FFF75CF92CB9002280210E48FFF756F95E
:1015000004E0012280210B48FFF750F9052000F08C
:10151000CFFB012240210748FFF748F9052000F0E2
:10152000C7FB002240210348FFF740F9052000F0E7
:10153000BFFB10BD000C014070B50024002500F079
:101540002BF8002240211348FFF730F900BF1CE0C0
:10155000012240210F48FFF729F9052000F0A8FBE0
:1015600080210C48FFF71AF9012804D1C4F10701C2
:1015700088402843C5B2002240210648FFF716F9EB
:10158000052000F095FB601CC4B2082CE0DB284667
:1015900070BD0000000C014000B585B00020019036
:1015A00002900390049000BF0C48806940F008004E
:1015B0000A4988610846806900F00800009000BF71
:1015C00000BF80200190002002900120039001A91B
:1015D0000348FEF753FF05B000BD000000100240B5
:1015E000000C014000B585B00020019002900390EE
:1015F000049000BF0D48806940F008000B498861E5
:101600000846806900F00800009000BF00BF8020FD
:10161000019011200290012003900220049001A962
:101620000348FEF72BFF05B000BD0000001002408C
:10163000000C014070B505460024FFF7D3FF0022DF
:1016400040211948FFF7B2F8002280211648FFF721
:10165000ADF800BF25E0C4F1070101208840284013
:1016600028B1012280211048FFF7A0F804E00022F1
:1016700080210D48FFF79AF8052000F019FB0122A0
:1016800040210948FFF792F8052000F011FB0022E5
:1016900040210548FFF78AF8052000F009FB601C8F
:1016A000C4B2082CD7DB70BD000C014010B5FFF7A9
:1016B00099FF012240210C48FFF778F80122802190
:1016C0000948FFF773F8052000F0F2FA00228021A4
:1016D0000548FFF76BF8052000F0EAFA00224021E8
:1016E0000148FFF763F810BD000C014010B5FFF78B
:1016F00079FF002240210C48FFF758F80022802192
:101700000948FFF753F8012240210748FFF74EF838
:10171000052000F0CDFA012280210348FFF746F8AA
:10172000052000F0C5FA10BD000C014010B5FFF710
:1017300033FF002240211048FFF738F8052000F061
:10174000B7FA012240210C48FFF730F8052000F0DD
:10175000AFFA80210848FFF721F808B9002400E01B
:101760000124002240210448FFF720F8052000F062
:101770009FFA204610BD0000000C014008B500BFD4
:101780000D48806940F020000B4988610846806957
:1017900000F02000009000BF00BF00BF0846806935
:1017A00040F0040088610846806900F00400009061
:1017B00000BF00BF08BD00000010024000B587B0A8
:1017C0000020039004900590069001900290154827
:1017D00015490860472048600021134881604FF692
:1017E000FF71C1600021016141618161FFF770FCFF
:1017F00008B1FEF72CFE4FF48050039003A90A486D
:10180000FFF7B2FC08B1FEF722FE00200190029023
:1018100001A90548FFF71AFC08B1FEF718FE07B04A
:1018200000BD0000002C01401400002010B50B4842
:101830000B4908604FF4E13048600021084881609E
:10184000C16001610C21416100218161C161FFF72B
:101850000FFD08B1FEF7FBFD10BD00000038014090
:101860005C00002000BFFEE700BFFEE770470000FD
:1018700008B508490968C9084FF47A72B1FBF2F15A
:101880004143009100BF00BF00994A1E0092002909
:10189000F9D108BD0C000020704710B5FEF792FF8B
:1018A00010BD00B58FB0282105A8FEF742FC142119
:1018B0006846FEF73EFC01200590000406900020DB
:1018C00007900120099002200C90C1030D914FF464
:1018D000E0110E9105A8FFF76DF908B1FEF7B7FD0D
:1018E0000F20009002200190002002904FF48060B1
:1018F00003900020049002216846FFF725F808B104
:10190000FEF7A5FD0FB000BD7047000010B50268DE
:10191000184B984208D0B0F1804F05D0164B984232
:1019200002D0164B984203D122F070024B681A4342
:10193000104B984208D0B0F1804F05D00E4B984222
:1019400002D00E4B984203D122F44072CB681A4366
:1019500022F080034C6943EA040202608B68C36290
:101960000B688362034B984201D10B690363012327
:10197000436110BD002C01400004004000080040FD
:1019800030B50C46816821F47F4142EA03252543A6
:101990002943816030BD0A46816821F0700142F020
:1019A000070319438160704730B50B461446026A3D
:1019B000056A25F001050562816921F0F00141EA1F
:1019C000041122F00A021A438161026230BD30B56F
:1019D0000B461446056A25F0100505628169026A06
:1019E00021F4704141EA043122F0A00242EA0312DC
:1019F0008161026230BD000070B50446216809694A
:101A000021F44051E2681143226811612269A16802
:101A10001143626941EA02052168C96841F20C621A
:101A2000914329432268D1602168496921F44071BA
:101A3000A2691143226851612D4A2168914202D165
:101A4000FFF75EF801E0FFF74BF800EBC00101EB98
:101A5000001162689200B1FBF2F100EBC00202EBF0
:101A6000001263689B00B2FBF3F26423B2FBF3F253
:101A700002EBC20303EB0212A1EB8201322202EB62
:101A800001116422B1FBF2F101F0F00100EBC002A0
:101A900002EB001263689B00B2FBF3F26423B2FB1B
:101AA000F3F201EB021200EBC00101EB00116368DD
:101AB0009B00B1FBF3F100EBC00303EB001366687E
:101AC000B600B3FBF6F36426B3FBF6F303EBC306F1
:101AD00006EB0313A1EB8301322303EB0111642313
:101AE000B1FBF3F101F00F0111442268916070BD68
:101AF000003801402DE9F04104460D46174698464E
:101B0000069E21E0701CF8B12EB1FEF755FEA0EB49
:101B10000800B04218D92068C06820F4D07021684D
:101B2000C8602068406920F00100216848612020D9
:101B300084F83D0084F83E0000BF002084F83C009B
:101B400000BF0320BDE8F081206800682840A8425B
:101B500001D1012000E00020B842D3D00020F1E7FD
:101B600000BFFEE70FB4054B10B503A9044A029865
:101B700000F033F810BC5DF814FB0000091D0008EC
:101B80001000002002480068C0F3022070470000E7
:101B90000CED00E010B5002804DB0A07130E054A1F
:101BA000135406E00A07140E034A00F00F031B1F2C
:101BB000D45410BD00E400E018ED00E002E008C8D5
:101BC000121F08C1002AFAD170477047002001E0B7
:101BD00001C1121F002AFBD170472DE9F84F994629
:101BE000924688460546002706E025280AD0514639
:101BF0004A4690476D1C7F1C28780028F5D138464E
:101C0000BDE8F88F002315F8011F18462E2915D1BD
:101C100015F8011F04232A290DD06FF02F0229780F
:101C2000A1F13004092C09D800EB800002EB400040
:101C300008446D1CF3E758F8040B6D1C2A78002A41
:101C4000DDD0632A07D0732A0FD0104651464A468A
:101C500090477F1C2AE018F8042B8DF80020002103
:101C60008DF801106E46012103E058F8046B4FF027
:101C7000FF315A074FF0000401D409E0641C84428C
:101C80000BDA8C42FADB325D002AF7D105E0641CE6
:101C90008C42FCDB305D0028F9D1274404E016F8C3
:101CA000010B51464A469047641EF8D26D1CA3E7CB
:101CB0000021144A1268516212490968096841F00A
:101CC0000101104A1268116000BF0E490968496A93
:101CD0008142FAD300BF0B490968096A41F2111227
:101CE000114069B907490968096A9210114039B968
:101CF00004490968096821F00101024A126811606B
:101D000000BF70471400002013B50C464FF0FF339E
:101D1000012269460248FFF729FB00981CBD00001C
:101D20005C0000200EB50020009001900290FEF7AC
:101D300055FDFFF7B6FDFFF721FDFFF73FFDFFF76C
:101D400075FDFEF713FA082208A10020FEF712FA2B
:101D50006420FEF77FFB082269460020FEF7C8FAE0
:101D6000694605A0FFF7FEFE00BFFEE730313233C3
:101D70003435363700000000415432344330325F8E
:101D800052616E646F6D526561643A202573000084
:101D9000000000000000000001020304060708091B
:101DA0000000000001020304C81D0008000000201C
:101DB00014000000BC1B0008DC1D000814000020FB
:101DC0008C040000CC1B0008000000001000000084
:0C1DD000010000000024F40000000000EE
:04000005080000ED02
:00000001FF
